:100000000C9488000C940A030C94A3000C94A30095
:100010000C94A3000C94A3000C94A3000C945A0617
:100020000C9487060C9493050C942D060C94D30520
:100030000C9400060C9466050C94A3000C94A30089
:100040000C9413050C94A3000C9491080C94A30039
:100050000C9459080C94A3000C94A3000C94A300D6
:100060000C94A3000C94A300256368656C6C6F2549
:10007000630048616C6C6F2052756E6466756E6BC0
:1000800065722E00256368656C6C6F256300000047
:100090000100080020004000800000010004000072
:1000A000010008004000000100042563425420259F
:1000B00064256300303132333435363738394142C4
:1000C000434445460025634A4420256425630000D7
:1000D00000000000000000000010101010000000E0
:1000E0000018181818000000001C1C1C1C00000040
:1000F000001E1E1E1E000000001F1F1F1F00000804
:10010000141408050605000000000000111F00007F
:1001100011241FBECFEFD4E0DEBFCDBF11E0A0E0C1
:10012000B1E0ECE8FBE102C005900D92AC38B107FC
:10013000D9F712E0ACE8B1E001C01D92A936B107D1
:10014000E1F70C9469020C940000EF92FF920F9378
:100150001F937B018C0180E00E948F07C801B701CB
:100160000E94CC0684E00E948F07C801B7010E945C
:10017000CC0682E00E948F07C801B7010E94CC061E
:1001800086E00E948F07C801B7010E94CC0682E07A
:100190000E948F07C801B7010E94CC0684E00E942C
:1001A0008F07C801B7010E94CC0680E00E948F072C
:1001B000C801B7010E94CC0687E00E948F071F91FB
:1001C0000F91FF90EF900895982FE0E0F1E0AFE3FA
:1001D000B1E08D91891719F480819927089531969E
:1001E00081E0EE33F807A9F3A0F380EB90E00895E7
:1001F0000895109248021092460282E580934702C9
:10020000089580918D0190918E01A0918F01B09100
:1002100090010196A11DB11D80938D0190938E01D7
:10022000A0938F01B093900180918D0190918E01E8
:10023000A0918F01B09190010B97A105B10558F0E5
:100240008FEF8093480210928D0110928E011092D0
:100250008F01109290010895089580917E0186305B
:10026000E1F0809147028836C1F483E090E09F93EB
:100270008F9382E090E09F938F9388E690E09F9326
:100280008F9381E08F930E94470A8DB79EB70796A0
:100290000FB6F8949EBF0FBE8DBF80917E01992747
:1002A0008630910509F4E1C087309105ACF48330C4
:1002B000910509F4A1C08430910534F48130910591
:1002C00021F1029741F108958430910509F4B8C0F5
:1002D000059709F4BEC008958A30910509F44AC013
:1002E0008B3091053CF48830910509F478C009976A
:1002F00099F108958C30910509F45CC08C3091051A
:100300000CF44DC00D9701F10895809147028230A1
:1003100009F0DDC005C0809147028A3521F484E0F0
:1003200080937E0108958C3411F483E0F9CF8334F7
:1003300011F488E0F5CF8D3411F489E0F1CF8335E5
:1003400009F0B0C08DE0ECCF80914702833509F011
:10035000A9C00E94560CA6C09091470290539A30B3
:1003600030F52AE0929FC00111248093A8012093C8
:100370007E0108959091470290539A3048F49093EB
:10038000A9018091A801890F912D911D449728F012
:100390001092A8011092A90185C08BE0C1CF809175
:1003A00047028C3711F48CE0BBCF1092A901109258
:1003B000A80178C0609147026053643048F46093AC
:1003C000AA019091A8018091A901890F0E94420C75
:1003D0001092A8011092A9011092AA0163C0809105
:1003E0004702803311F48CE004C0813309F05AC015
:1003F0008FE00E940B0C56C080914702803311F4AD
:1004000080E01BC0813311F484E017C0823311F403
:1004100082E013C0833311F486E00FC0843311F4FB
:1004200081E00BC0853311F485E007C0863311F4F9
:1004300083E003C08733B1F587E00E948F0732C0A5
:10044000809147028053843068F58093910185E064
:1004500067CF80914702803211F486E061CF81E05E
:1004600080937E01109291010895909147029330FC
:1004700021F08091A7018431B8F06091910180E072
:100480000E94420C82E991E00E947E0C90E2E2E937
:10049000F1E083E19193815087FFFCCF1092A60198
:1004A0001092A70181E03CCF97FF05C0892F0E94E1
:1004B000E400809347028091A701E82FFF27EE56C2
:1004C000FE4F9091470290838F5F8093A70108951C
:1004D0000895CFEFD4E0DEBFCDBF0E94F9008CE0DD
:1004E0000E949E0C0E948B0B0E94920387E00E9448
:1004F0008F070E94CF0760E875E280E090E00E94DD
:100500009D0785EF97E00E94D10861E071E080E0EF
:100510000E94C9036EE677E085E00E94C9030E944D
:10052000560C61E085E00E94420C8FE791E00E944A
:100530007E0C82E790E09F938F9311E01F930E94BF
:10054000470A68EC70E080E090E00E94A500C0E0FF
:10055000D0E00F900F900F9087E492E00E94FF0789
:10056000809147028836C9F483E090E09F938F938F
:1005700082E090E09F938F9384E890E09F938F9325
:1005800081E08F930E94470A8DB79EB707960FB6FA
:10059000F8949EBF0FBE8DBF02C08B36F1F062E0B3
:1005A00085E00E94420C62E070E080E090E00E94F2
:1005B000CC06113031F42196CF3FD10538F010E050
:1005C00005C02197C230D10508F411E04AE06FEF71
:1005D00070E0CE010E94050DBFCF0E94560C8091A5
:1005E0004802882321F00E9422071092480280913D
:1005F0004602882331F0809146020E949B0B1092A4
:10060000460287E492E00E94FF07882341F30E949C
:100610002D01E5CF1F920F920FB60F9211248F93E9
:100620004C9B02C081E003C04B9B04C082E08093DE
:10063000460202C0109246028F910F900FBE0F909B
:100640001F901895039665E070E00E94750DCB0130
:10065000AA27BB27BC01CD0124E130E040E050E0F7
:100660000E94560DDC01CB01009711F00197FCCFE1
:100670000895873040F4E82FFF27EE0FFF1FE55560
:10068000FE4F108211820895089595B5987F982B9A
:1006900095BD08951092490210924A0210924B02A1
:1006A00010924C02089582E00E94450386E086BDC8
:1006B00080916E00816080936E000E944A030895CD
:1006C00090918100987F982B90938100089583E00A
:1006D0000E946003109285001092840080916F0048
:1006E000816080936F0008959091B100987F982B5E
:1006F0009093B100089510925102109252021092FC
:10070000530210925402089582E00E94740386E01E
:100710008093B200809170008160809370000E948D
:100720007B030895CF93C0E08C2F0E943903CF5FE5
:10073000C730D0F30E9453030E9467030E948403D2
:100740007894CF91089585B5E82FFF27E770F07072
:10075000EE0FFF1FE256FF4F85919491089580910F
:100760008100E82FFF27E770F070EE0FFF1FE256C1
:10077000FF4F8591949108958091B100E82FFF2754
:10078000E770F070EE0FFF1FE257FF4F85919491D5
:100790000895873040F4E82FFF27EE0FFF1FE5553F
:1007A000FE4F6083718308950895DF92EF92FF9268
:1007B0000F931F93CF93DF93EC01D6B410924D02A9
:1007C00010924E0210924F02109250020E94A30308
:1007D0009C014427552760E07DE281E391E00E947F
:1007E000AB0D293B8DE8380786E0480780E05807C5
:1007F000C0F487E2C131D807A0F4CE01AA27BB27F5
:10080000BC01CD010E94560DDC01CB01BC01CD0124
:1008100028EE33E040E050E00E94890DFA01E90142
:1008200011C07E0100271127CA01B90128EE33E06B
:1008300040E050E00E94890DC801B7010E94560DAA
:10084000FC01EB0180914D0290914E02A0914F026C
:10085000B09150022227382F492F5A2F86B5992759
:10086000AA27BB27282B392B4A2B5B2BCD0DD11D5B
:10087000E11DF11D2C173D074E075F0758F58091CC
:100880004D0290914E02A0914F02B091500283B759
:10089000817F83BF83B7816083BF889583B78E7F55
:1008A00083BF80914D0290914E02A0914F02B09172
:1008B0005002BA2FA92F982F882726B5332744270F
:1008C0005527822B932BA42BB52B8C179D07AE0796
:1008D000BF07A8F2DF91CF911F910F91FF90EF908A
:1008E000DF9008958091490290914A02A0914B02B5
:1008F000B0914C02BC01CD010895809151029091BC
:100900005202A0915302B0915402BC01CD0108954E
:10091000893049F4809180008260809380008091CA
:1009200080008E7F0EC08A3021F48091800082602A
:1009300003C0809180008D7F809380008091800033
:10094000816080938000109289001092880010923C
:100950008B0010928A0008959C01809180008E7F08
:1009600080938000809180008260809380008091DD
:1009700081008860809381008091810080618093F4
:100980008100309387002093860010928900109296
:10099000880010928B0010928A0008958091800048
:1009A0008F7780938000809180008F7B8093800080
:1009B0000895809180008F7D8093800080918000D9
:1009C0008F7E809380000895809180008D7F80933A
:1009D0008000809180008E7F809380000E94CE04F2
:1009E0000E94D904089580918000806880938000DF
:1009F000809180008F7B809380000895809180009B
:100A0000806280938000809180008F7E8093800040
:100A100008959093890080938800089590938B00A7
:100A200080938A0008951F920F920FB60F9211249F
:100A30002F933F934F935F936F937F938F939F93E6
:100A4000AF93BF93EF93FF938091490290914A0235
:100A5000A0914B02B0914C020196A11DB11D809353
:100A6000490290934A02A0934B02B0934C028091AA
:100A70004D0290914E02A0914F02B091500201960A
:100A8000A11DB11D80934D0290934E02A0934F0281
:100A9000B09350028091AB019091AC01892B29F069
:100AA000E091AB01F091AC010995FF91EF91BF91FD
:100AB000AF919F918F917F916F915F914F913F91F6
:100AC0002F910F900FBE0F901F9018951F920F92AD
:100AD0000FB60F9211242F933F934F935F936F9311
:100AE0007F938F939F93AF93BF93EF93FF938091E7
:100AF000AD019091AE01892B29F0E091AD01F0910B
:100B0000AE010995FF91EF91BF91AF919F918F91A8
:100B10007F916F915F914F913F912F910F900FBEF9
:100B20000F901F9018951F920F920FB60F921124DD
:100B30002F933F934F935F936F937F938F939F93E5
:100B4000AF93BF93EF93FF93809151029091520224
:100B5000A0915302B09154020196A11DB11D809342
:100B6000510290935202A0935302B0935402809189
:100B7000B5019091B601892B29F0E091B501F09172
:100B8000B6010995FF91EF91BF91AF919F918F9120
:100B90007F916F915F914F913F912F910F900FBE79
:100BA0000F901F9018951F920F920FB60F9211245D
:100BB0002F933F934F935F936F937F938F939F9365
:100BC000AF93BF93EF93FF938091AF019091B001EA
:100BD000892B29F0E091AF01F091B0010995FF91C7
:100BE000EF91BF91AF919F918F917F916F915F91A5
:100BF0004F913F912F910F900FBE0F901F9018951E
:100C00001F920F920FB60F9211242F933F934F9381
:100C10005F936F937F938F939F93AF93BF93EF9364
:100C2000FF938091B1019091B201892B29F0E0915D
:100C3000B101F091B2010995FF91EF91BF91AF9190
:100C40009F918F917F916F915F914F913F912F91E4
:100C50000F900FBE0F901F9018951F920F920FB616
:100C60000F9211242F933F934F935F936F937F9332
:100C70008F939F93AF93BF93EF93FF938091B301B3
:100C80009091B401892B29F0E091B301F091B40166
:100C90000995FF91EF91BF91AF919F918F917F91B6
:100CA0006F915F914F913F912F910F900FBE0F90D9
:100CB0001F9018951F920F920FB60F9211242F9329
:100CC0003F934F935F936F937F938F939F93AF93D4
:100CD000BF93EF93FF938091B7019091B801892B57
:100CE00029F0E091B701F091B8010995FF91EF91DA
:100CF000BF91AF919F918F917F916F915F914F9134
:100D00003F912F910F900FBE0F901F9018951F923B
:100D10000F920FB60F9211242F933F934F935F932F
:100D20006F937F938F939F93AF93BF93EF93FF93B3
:100D30008091B7019091B801892B29F0E091B7011A
:100D4000F091B8010995FF91EF91BF91AF919F91FB
:100D50008F917F916F915F914F913F912F910F9064
:100D60000FBE0F901F90189521E030E002C0220FB7
:100D7000331F8A95E2F7922F909585B1892385B923
:100D8000089521E030E002C0220F331F8A95E2F778
:100D900085B1822B85B908959B01AC01DC01CB01A3
:100DA00063E0880F991FAA1FBB1F6A95D1F7820FB6
:100DB000931FA41FB51F820F931FA41FB51F8093FD
:100DC000BB019093BC01A093BD01B093BE01809183
:100DD000BB019091BC01A091BD01B091BE010097F3
:100DE000A105B105A1F70895282F30E0992741E02A
:100DF00050E0842395238417950739F026953F5FAB
:100E0000822F992781709070F6CF83E090E09F93B6
:100E10008F93832F99279F938F9382E090E09F93E6
:100E20008F938AEA90E09F938F9381E08F930E9443
:100E3000470A8DB79EB709960FB6F8949EBF0FBEAE
:100E40008DBF08950F931F93CF9308E010E0C0E08B
:100E500085E00E94B4068C2F0E94B40681E00E94B7
:100E6000B406219A209A259A249885E00E94C1060A
:100E700085E00E94B40681E00E94B40661E070E063
:100E800080E090E00E94CC0683B180718093C00125
:100E90008091C00182958F708093C00181E00E9493
:100EA000C1068091C001C82B023011050CF0CC0F97
:100EB0000150104010161106F4F2C095CF738091C6
:100EC000B9018C1739F0C093B901CC2319F08C2FDC
:100ED0000E94F406CF911F910F9108958091BB015C
:100EE0009091BC01A091BD01B091BE010097A105F8
:100EF000B10599F08091BB019091BC01A091BD0119
:100F0000B091BE010197A109B1098093BB019093F3
:100F1000BC01A093BD01B093BE0108950895579AF6
:100F2000569A559A5F985E985D98982F9295990F6A
:100F3000907E8BB1892B8BB90895DC01CB0173E0D6
:100F4000880F991FAA1FBB1F7A95D1F79C01AD018D
:100F5000220F331F441F551F8050934DAE4CBE4F80
:100F6000BC01CD010E94890DDA01C901019780936E
:100F7000C400892F99278093C500089540E450E06C
:100F800062EC71E086E592E00E94F30A40E450E0F2
:100F900062E072E08FE592E00E94F30A0895F8940F
:100FA0000E94BE07109243021092420288ED809385
:100FB000C10060E875E280E090E00E949D078FEF3D
:100FC0008093550210925E0210926802109267029E
:100FD000789408959093430280934202089586E5A1
:100FE00092E008958FE592E00895982F8091550240
:100FF0008823E1F39093C600109255020895CF9391
:10100000DF93EC018091580290915902009769F0AA
:1010100080915A0290915B02009739F086E592E048
:101020000E94FD0A88838FEF90E0DF91CF910895B1
:10103000CF93DF93CDB7DEB721970FB6F894DEBF1D
:101040000FBECDBFCE0101960E94FF07882319F085
:101050008981992702C08FEF9FEF21960FB6F894F0
:10106000DEBF0FBECDBFDF91CF91089510925B021E
:1010700010925A02089580915A0290915B02892B36
:1010800019F48FEF90E0089580E090E008950895BE
:10109000682F8FE592E00E94560B992708958FEFF5
:1010A00080935E028FE592E00E94FD0A0E94F507A0
:1010B00008951F920F920FB60F9211242F933F9312
:1010C0004F935F936F937F938F939F93AF93BF9350
:1010D000EF93FF9380915E02882379F08091630201
:1010E00090916402892B39F08FE592E00E94FD0A0D
:1010F0008093C60005C010925E028FEF8093550268
:10110000FF91EF91BF91AF919F918F917F916F91DF
:101110005F914F913F912F910F900FBE0F901F90B5
:1011200018951F920F920FB60F9211242F933F9391
:101130004F935F936F937F938F939F93AF93BF93DF
:10114000EF93FF936091C600809142029091430219
:10115000892B39F0E0914202F0914302862F0995E4
:101160000FC086E592E00E94560B882349F48091D7
:1011700067029091680201969093680280936702DB
:10118000FF91EF91BF91AF919F918F917F916F915F
:101190005F914F913F912F910F900FBE0F901F9035
:1011A000189590934502809344020895E09144027B
:1011B000F091450209950895CF93DF93EC01892BB7
:1011C00061F08881882349F0E0914402F091450262
:1011D0008991099588818823B9F7DF91CF91089586
:1011E000EF92FF920F931F93CF93DF93EC017A015D
:1011F00020E030E0892B01F1C9012F5F3F4F8617B6
:10120000970718F489918823B9F720E030E02E156C
:101210003F0590F4888189010F5F1F4FE0914402E0
:10122000F0914502882311F0219601C080E20995D2
:1012300098010E151F0570F3DF91CF911F910F914B
:10124000FF90EF900895CF93DF93EC01009779F032
:10125000FC0121968491882351F0E0914402F091A1
:1012600045020995FE01219684918823B1F7DF910B
:10127000CF910895E0914402F09145028DE00995E7
:10128000E0914402F09145028AE009950895E82F23
:10129000FF27EF70F070EC54FF4F8491E09144020F
:1012A000F0914502099508951F93182F82958F702C
:1012B0000E944709812F0E9447091F9108950F93AB
:1012C0001F938C01812F99270E945409802F0E941F
:1012D00054091F910F910895EF92FF920F931F935E
:1012E0007B018C01C801AA27BB270E945F09C701A7
:1012F0000E945F091F910F91FF90EF9008952F9228
:101300003F924F925F926F927F928F929F92AF9295
:10131000BF92CF92DF92EF92FF920F931F93CF93E2
:10132000DF93CDB7DEB7A2970FB6F894DEBF0FBE3E
:10133000CDBF69A3C42E2AA327013801442351F04D
:1013400017FF08C0EE24FF248701E418F5080609FA
:10135000170902C08301720199A1692F772767FDE0
:10136000709561507040CC2011F061507040D62EC5
:1013700018A22FE1222E312C2C0E3D1E882E9924EE
:1013800087FC9094A92CB92CC801B701A501940140
:101390000E94890DDC01CB01FC01EC54FF4F8491CC
:1013A0008F8FC801B701A50194010E94890D7901B1
:1013B0008A01DA94AFEFDA1639F1DA94C1010197B4
:1013C000E114F10401051105C1F01C01C801B701C8
:1013D000A50194010E94890DDC01CB01FC01EC54B4
:1013E000FF4F8491F1018083C801B701A5019401E9
:1013F0000E94890D79018A0104C01C01EAA1DC0167
:10140000EC93FFEFDF16C9F6CC20B9F077FE05C0EC
:101410008DE2D1018E931D0110C0C10101971414FA
:101420001504160417042CF41C018BE2F1018083CF
:1014300004C01C0180E2D1018C93D9A0DA94BFEFE3
:10144000DB1661F0E0914402F0914502D1018D91EB
:101450001D010995DA94BFEFDB16A1F7A2960FB62E
:10146000F894DEBF0FBECDBFDF91CF911F910F91DA
:10147000FF90EF90DF90CF90BF90AF909F908F90B4
:101480007F906F905F904F903F902F9008957F9244
:101490008F929F92AF92BF92CF92DF92EF92FF9284
:1014A0000F931F93CF93DF93CDB7DEB77888C988AA
:1014B000DA8863E1A62EB12CAC0EBD1E08C08823CD
:1014C00009F481C0E0914402F0914502099596012A
:1014D0002F5F3F4F772021F0F6016901849103C00F
:1014E000F60180816901853251F72F5F3F4F7720E8
:1014F00021F0F6016901849103C0F6018081690140
:10150000282F332727FD30952436310591F02536D5
:10151000310524F42336310529F0D4CF283731059D
:1015200081F0D0CFF50122E030E0A20EB31E808121
:10153000C9CF5AE0852E912C40E1E42E47E2F42EEB
:1015400004C030E1E32EF12C4701F50122E030E048
:10155000A20EB31E008111818436D9F417FF09C091
:10156000109501951F4FE0914402F09145028DE2E4
:10157000099532E0E316F10460F00E151F0548F4FA
:10158000C7016AE070E00E94750D7B016230710551
:10159000A0F7C801B7010E94750DFB01EC54FF4F85
:1015A0008491E0914402F09145020995C801B70188
:1015B0000E94750D8C01C701B4010E94750D7B015D
:1015C000672B39F784CF80E090E0DF91CF911F91B6
:1015D0000F91FF90EF90DF90CF90BF90AF909F90D2
:1015E0008F907F900895FC016083718342835383C1
:1015F00016821782148215820895CF93DF93EC012F
:10160000E0E02C813D8121153105B9F08E819F816B
:10161000E881F981E80FF91FE08101968E839F83AD
:101620006A817B818617970720F00E94750D8E8353
:101630009F83215030402C833D838E2F9927DF914B
:10164000CF910895CF93DF93FC01EB012481358185
:1016500062177307A0F486819781860F971F868390
:101660009783628173818617970720F00E94750D1A
:10167000868397832C1B3D0B2483358302C0148201
:101680001582DF91CF910895FC0186819781228197
:101690003381860F971FB9010E94750D0190F0816B
:1016A000E02DE80FF91F808199270895CF93DF93EC
:1016B000EC01462F2C813D816A817B8126173707FB
:1016C00098F48E819F81820F931F0E94750DE8818F
:1016D000F981E80FF91F40838C819D8101968C83ED
:1016E0009D838FEF90E002C080E090E0DF91CF918A
:1016F0000895FC0140E050E024813581828193818E
:101700002817390710F441E050E0CA010895FC01A0
:1017100014821582089553985498509880916900C6
:10172000826080936900809169008E7F8093690058
:10173000E89AE998089523E030E03F932F939927A2
:101740009F938F9382E090E09F938F9385EC90E03E
:101750009F938F9381E08F930E94470A8DB79EB726
:1017600009960FB6F8949EBF0FBE8DBF08952A9AB2
:1017700000C02A9808951F93CF93C82F662311F0B5
:10178000449A01C04498459887B18F6087B918B1D1
:10179000107F8C2F82958F70812B88B90E94B70B98
:1017A000CF70C12BC8B90E94B70B1F6018B9CF9179
:1017B0001F910895882311F0449A01C04498459AD6
:1017C00087B1807F87B92A9A00C096B19295907FA1
:1017D0002A9800C02A9A00C086B18F70982B2A9848
:1017E000892F9927089580E00E94DA0B8823DCF383
:1017F0008AE090E00197F1F780E00E94DA0B9927E8
:1018000008951F93182F0E94F30B61E0812F0E940F
:10181000BB0B1F9108951F93182F0E94F30B60E0DC
:10182000812F0E94BB0B1F910895CF92DF92FF92F0
:101830000F931F93CF93DF936C01062F142F110F7B
:10184000110F110F000F000F000FFF24C0E0D0E0B8
:10185000812F8F0D80640E940B0CF601E00FF11DAB
:10186000EC0FFD1F84910E94010CF394219687E0F8
:101870008F1570F7DF91CF911F910F91FF90DF903F
:10188000CF900895662311F4805803C0613021F48D
:1018900080540E940B0C0895623011F48C56F9CFDD
:1018A0008C52F7CF0E94F30B9927089581E00E9494
:1018B0000B0C089582E00E940B0C0895CF93C82F63
:1018C0000E94F30B982FCA3099F4843110F480E40D
:1018D0000BC08054843110F484E106C094519C32D2
:1018E00010F484E501C080E080580E940B0C04C015
:1018F00061E08C2F0E94BB0BCF910895CF93DF93B3
:10190000EC018991882329F00E945E0C899188233B
:10191000D9F7DF91CF910895CF93DF93EC01FC01CC
:1019200021968491882339F00E945E0CFE01219655
:1019300084918823C9F7DF91CF9108951F93182FC1
:1019400087B18F6087B93C9A3D9A229A80E898E3E4
:101950000197F1F7419A409A0E94B70B80E891E60F
:101960000197F1F70E94B70B80E491E00197F1F73E
:101970000E94B70B80E491E00197F1F740980E9434
:10198000B70B80E491E00197F1F788E20E940B0C1D
:1019900088E00E940B0C0E94560C86E00E940B0C03
:1019A000812F0E940B0C40E0642F8FEC90E00E948E
:1019B000150C41E0642F8FEC90E00E94150C42E082
:1019C000642F8FEC90E00E94150C43E0642F8FECA5
:1019D00090E00E94150C44E0642F8FEC90E00E9490
:1019E000150C45E0642F8FEC90E00E94150C46E04A
:1019F000642F8FEC90E00E94150C47E0642F8FEC71
:101A000090E00E94150C1F910895DF92EF92FF92D3
:101A10000F931F93CF93DF93242F3327829FF001DF
:101A2000839FF00D929FF00D1124CF01880F991F15
:101A3000880F991F8E0F9F1F8E0F9F1F0E94750D7D
:101A40007B0100271127442349F1C0E0D0E0D42EC8
:101A50002596CE01AA27BB272597E816F9060A077F
:101A60001B07A8F4CE01AA27BB27E816F9060A0728
:101A70001B0710F480E00CC0C801B70126E030E07D
:101A800040E050E00E94890DDC01CB0101C085E0FF
:101A90000E94010CDA942696DD20D1F6DF91CF91D9
:101AA0001F910F91FF90EF90DF900895629FD001FA
:101AB000739FF001829FE00DF11D649FE00DF11D09
:101AC000929FF00D839FF00D749FF00D659FF00DB8
:101AD0009927729FB00DE11DF91F639FB00DE11DA5
:101AE000F91FBD01CF0111240895AA1BBB1B51E1B1
:101AF00007C0AA1FBB1FA617B70710F0A61BB70B7E
:101B0000881F991F5A95A9F780959095BC01CD0122
:101B10000895A1E21A2EAA1BBB1BFD010DC0AA1F2E
:101B2000BB1FEE1FFF1FA217B307E407F50720F046
:101B3000A21BB30BE40BF50B661F771F881F991FC1
:101B40001A9469F760957095809590959B01AC010A
:101B5000BD01CF01089597FB092E05260ED057FD34
:101B600004D0D7DF0AD0001C38F45095409530954A
:101B700021953F4F4F4F5F4F0895F6F79095809511
:0C1B8000709561957F4F8F4F9F4F089527
:101B8C00E1EFF5E230414141414141414345454599
:101B9C00454949494944EE4F4F4F4FEFEF55555585
:101BAC00F55961616161616161636565656569696B
:101BBC0069696FEE6F6F6F6FFDEF7575757979E40D
:101BCC00F6FCDFF8C0C1C2C3C4C5C6C7C8C9CACBFE
:101BDC00CCCDCECFD0D1D2D3D4D5D6D8D9DADBDCBC
:101BEC00DDE0E1E2E3E4E5E6E7E8E9EAEBECEDEE83
:101BFC00EFF0F1F2F3F4F5F7F8F9FAFBFDFF01520F
:0C1C0C00756E6466756E6B6572000200F8
:00000001FF
