:100000000C946D000C9433010C9488000C948800BF
:100010000C9488000C9488000C9488000C9479044B
:100020000C94A6040C94B2030C944C040C94F203AC
:100030000C941F040C9485030C9488000C94880085
:100040000C9432030C9488000C9457060C9488008E
:100050000C941F060C9488000C9488000C94880063
:100060000C9488000C94880048616C6C6F20527569
:100070006E6466756E6B65722E004563686F3A201C
:1000800025640000000100080020004000800000FE
:1000900001000400000100080040000001000442CB
:1000A000542025640074656D70426974733A256448
:1000B000200072656164426974733A2564200D0AF8
:1000C000002E00303132333435363738394142432F
:1000D000444546004A442025640011241FBECFEF4A
:1000E000D4E0DEBFCDBF11E0A0E0B1E0E4EDF5E18A
:1000F00002C005900D92A230B107D9F711E0A2E03D
:10010000B1E001C01D92A13DB107E1F70C942B01B4
:100110000C9400001092B0011092AE0182E5809321
:10012000AF0187E00E94650108958FEF8093B001D1
:1001300080910201909103019C010196909303012B
:1001400080930201295E334024F010920301109243
:100150000201089508958091000199278330910547
:1001600039F18430910534F48130910571F00297B2
:1001700091F008958530910509F448C085309105C6
:10018000DCF1069709F44EC008958091AF018230EA
:1001900009F05CC005C08091AF018A3521F484E08C
:1001A0008093000108958C3409F046C083E0F8CFB5
:1001B0008091AF01803311F480E01BC0813311F4D2
:1001C00084E017C0823311F482E013C0833311F44A
:1001D00086E00FC0843311F481E00BC0853311F445
:1001E00085E007C0863311F483E003C0873321F52F
:1001F00087E00E94550520C09091AF01892F805360
:100200008430D0F49093040185E0CACF8091AF018F
:10021000803211F486E0C4CF81E080930001109217
:10022000040108959091AF01933021F0809119015C
:10023000843120F01092190181E0B2CFE82FFF271E
:10024000EB5FFE4F90838F5F8093190108950895AF
:1002500082E084B90895CFEFD4E0DEBFCDBF82E065
:1002600084B985B9FDCF1F920F920FB60F9211245A
:100270008F9382E08093AE018F910F900FBE0F900D
:100280001F901895039665E070E00E94990ACB01D3
:10029000AA27BB27BC01CD0124E130E040E050E0BB
:1002A0000E947A0ADC01CB01009711F00197FCCF84
:1002B0000895873040F4E82FFF27EE0FFF1FE65E1A
:1002C000FE4F108211820895089595B5987F982B5E
:1002D00095BD08951092B1011092B2011092B30130
:1002E0001092B401089582E00E9465018BEE86BDF4
:1002F00080916E00816080936E000E946A01089573
:1003000090918100987F982B90938100089583E0CD
:100310000E948001109285001092840080916F00ED
:10032000816080936F0008959091B100987F982B21
:100330009093B10008951092B9011092BA011092F1
:10034000BB011092BC01089584E00E9494011092B8
:10035000B200809170008160809370000E949B01C8
:100360000895CF93C0E08C2F0E945901CF5FC73012
:10037000D0F30E9473010E9487010E94A401789427
:10038000CF91089585B5E82FFF27E770F070EE0F45
:10039000FF1FED56FF4F8591949108958091810044
:1003A000E82FFF27E770F070EE0FFF1FED56FF4FAD
:1003B0008591949108958091B100E82FFF27E7700F
:1003C000F070EE0FFF1FED57FF4F85919491089548
:1003D000873040F4E82FFF27EE0FFF1FE65EFE4F49
:1003E0006083718308950895DF92EF92FF920F93D7
:1003F0001F93CF93DF93EC01D6B41092B501109206
:10040000B6011092B7011092B8010E94C2019C017E
:100410004427552760E07DE281E391E00E94CF0A06
:10042000293B8DE8380786E0480780E05807C0F48C
:1004300087E2C131D807A0F4CE01AA27BB27BC01AF
:10044000CD010E947A0ADC01CB01BC01CD0128EE6E
:1004500033E040E050E00E94AD0AFA01E90111C02A
:100460007E0100271127CA01B90128EE33E040E0E0
:1004700050E00E94AD0AC801B7010E947A0AFC014F
:10048000EB018091B5019091B601A091B701B091B7
:10049000B8012227382F492F5A2F86B59927AA2726
:1004A000BB27282B392B4A2B5B2BCD0DD11DE11DF2
:1004B000F11D2C173D074E075F0758F58091B501D8
:1004C0009091B601A091B701B091B80183B7817F37
:1004D00083BF83B7816083BF889583B78E7F83BFD7
:1004E0008091B5019091B601A091B701B091B8018A
:1004F000BA2FA92F982F882726B5332744275527A9
:10050000822B932BA42BB52B8C179D07AE07BF070F
:10051000A8F2DF91CF911F910F91FF90EF90DF90A4
:1005200008958091B1019091B201A091B301B09171
:10053000B401BC01CD0108958091B9019091BA0137
:10054000A091BB01B091BC01BC01CD0108958930DF
:1005500049F48091800082608093800080918000C7
:100560008E7F0EC08A3021F480918000826003C0AB
:10057000809180008D7F80938000809180008160D9
:1005800080938000109289001092880010928B0056
:1005900010928A0008959C01809180008E7F809344
:1005A0008000809180008260809380008091810033
:1005B00088608093810080918100806180938100B8
:1005C0003093870020938600109289001092880053
:1005D00010928B0010928A000895809180008F778E
:1005E00080938000809180008F7B809380000895AD
:1005F000809180008F7D80938000809180008F7E2D
:10060000809380000895809180008D7F809380008A
:10061000809180008E7F809380000E94ED020E9476
:10062000F802089580918000806880938000809116
:1006300080008F7B8093800008958091800080628D
:1006400080938000809180008F7E80938000089549
:100650009093890080938800089590938B008093F5
:100660008A0008951F920F920FB60F9211242F93B4
:100670003F934F935F936F937F938F939F93AF932A
:10068000BF93EF93FF938091B1019091B201A0913C
:10069000B301B091B4010196A11DB11D8093B101C8
:1006A0009093B201A093B301B093B4018091B501CE
:1006B0009091B601A091B701B091B8010196A11D2A
:1006C000B11D8093B5019093B601A093B701B0938B
:1006D000B80180911A0190911B01892B29F0E091BA
:1006E0001A01F0911B010995FF91EF91BF91AF9114
:1006F0009F918F917F916F915F914F913F912F913A
:100700000F900FBE0F901F9018951F920F920FB66B
:100710000F9211242F933F934F935F936F937F9387
:100720008F939F93AF93BF93EF93FF9380911C019F
:1007300090911D01892B29F0E0911C01F0911D0180
:100740000995FF91EF91BF91AF919F918F917F910B
:100750006F915F914F913F912F910F900FBE0F902E
:100760001F9018951F920F920FB60F9211242F937E
:100770003F934F935F936F937F938F939F93AF9329
:10078000BF93EF93FF938091B9019091BA01A0912B
:10079000BB01B091BC010196A11DB11D8093B901AF
:1007A0009093BA01A093BB01B093BC018091240146
:1007B00090912501892B29F0E0912401F0912501E8
:1007C0000995FF91EF91BF91AF919F918F917F918B
:1007D0006F915F914F913F912F910F900FBE0F90AE
:1007E0001F9018951F920F920FB60F9211242F93FE
:1007F0003F934F935F936F937F938F939F93AF93A9
:10080000BF93EF93FF9380911E0190911F01892B5D
:1008100029F0E0911E01F0911F010995FF91EF91E0
:10082000BF91AF919F918F917F916F915F914F9108
:100830003F912F910F900FBE0F901F9018951F9210
:100840000F920FB60F9211242F933F934F935F9304
:100850006F937F938F939F93AF93BF93EF93FF9388
:100860008091200190912101892B29F0E0912001B4
:10087000F09121010995FF91EF91BF91AF919F9167
:100880008F917F916F915F914F913F912F910F9039
:100890000FBE0F901F9018951F920F920FB60F92D8
:1008A00011242F933F934F935F936F937F938F9375
:1008B0009F93AF93BF93EF93FF9380912201909109
:1008C0002301892B29F0E0912201F0912301099560
:1008D000FF91EF91BF91AF919F918F917F916F9118
:1008E0005F914F913F912F910F900FBE0F901F90EE
:1008F00018951F920F920FB60F9211242F933F93CA
:100900004F935F936F937F938F939F93AF93BF9317
:10091000EF93FF938091260190912701892B29F075
:10092000E0912601F09127010995FF91EF91BF9188
:10093000AF919F918F917F916F915F914F913F9177
:100940002F910F900FBE0F901F9018951F920F922E
:100950000FB60F9211242F933F934F935F936F9392
:100960007F938F939F93AF93BF93EF93FF93809168
:10097000260190912701892B29F0E0912601F09121
:1009800027010995FF91EF91BF91AF919F918F91B1
:100990007F916F915F914F913F912F910F900FBE7B
:1009A0000F901F901895282F30E0992741E050E0D4
:1009B000842395238417950739F026953F5F822F6E
:1009C000992781709070F6CF832F99279F938F93EB
:1009D0008FE990E09F938F9381E08F930E940D08A1
:1009E0000F900F900F900F900F9008951F93CF933B
:1009F00010E0809129018830E0F5299AC3B1C170D7
:100A000021F4116080E090E002C084E090E00E9458
:100A10005505299882E085B9809129018F5F8093DF
:100A20002901883050F3CC2389F08C2F99279F938C
:100A30008F9385EA90E09F938F9381E08F930E943C
:100A40000D080F900F900F900F900F90112389F0C9
:100A5000812F99279F938F9382EB90E09F938F93A1
:100A600081E08F930E940D080F900F900F900F90D0
:100A70000F90809129018F5F80932901883091F434
:100A800010922901112371F081EC90E09F938F93D4
:100A900081E08F930E940D08812F0E94D3040F9054
:100AA0000F900F90CF911F910895579A569A559A8B
:100AB0005F985E985D98982F9295990F907E8BB174
:100AC000892B8BB90895DC01CB0173E0880F991F46
:100AD000AA1FBB1F7A95D1F79C01AD01220F331FCE
:100AE000441F551F8050934DAE4CBE4FBC01CD01ED
:100AF0000E94AD0ADA01C90101978093C400892FD1
:100B000099278093C500089540E450E06AE271E0BF
:100B10008EEB91E00E94B90840E450E06AE671E093
:100B200087EC91E00E94B9080895F8940E9484052A
:100B30001092AB011092AA0188ED8093C10060E889
:100B400075E280E090E00E9463058FEF8093BD0125
:100B50001092C6011092D0011092CF01789408959E
:100B60009093AB018093AA0108958EEB91E00895D4
:100B700087EC91E00895982F8091BD018823E1F3DF
:100B80009093C6001092BD010895CF93DF93EC01BE
:100B90008091C0019091C101009769F08091C201DC
:100BA0009091C301009739F08EEB91E00E94C30849
:100BB00088838FEF90E0DF91CF910895CF93DF93FB
:100BC000CDB7DEB721970FB6F894DEBF0FBECDBF0D
:100BD000CE0101960E94C505882319F089819927C5
:100BE00002C08FEF9FEF21960FB6F894DEBF0FBEC5
:100BF000CDBFDF91CF9108951092C3011092C20131
:100C000008958091C2019091C301892B19F48FEF4F
:100C100090E0089580E090E008950895682F87ECB3
:100C200091E00E941C09992708958FEF8093C601D7
:100C300087EC91E00E94C3080E94BB0508951F92B3
:100C40000F920FB60F9211242F933F934F935F9300
:100C50006F937F938F939F93AF93BF93EF93FF9384
:100C60008091C601882379F08091CB019091CC01CD
:100C7000892B39F087EC91E00E94C3088093C6006D
:100C800005C01092C6018FEF8093BD01FF91EF91D7
:100C9000BF91AF919F918F917F916F915F914F9194
:100CA0003F912F910F900FBE0F901F9018951F929C
:100CB0000F920FB60F9211242F933F934F935F9390
:100CC0006F937F938F939F93AF93BF93EF93FF9314
:100CD0006091C6008091AA019091AB01892B39F0F7
:100CE000E091AA01F091AB01862F09950FC08EEB20
:100CF00091E00E941C09882349F48091CF019091D2
:100D0000D00101969093D0018093CF01FF91EF9194
:100D1000BF91AF919F918F917F916F915F914F9113
:100D20003F912F910F900FBE0F901F9018959093A9
:100D3000AD018093AC010895E091AC01F091AD015B
:100D400009950895CF93DF93EC01892B61F0888199
:100D5000882349F0E091AC01F091AD0189910995AA
:100D600088818823B9F7DF91CF910895EF92FF92A0
:100D70000F931F93CF93DF93EC017A0120E030E0D3
:100D8000892B01F1C9012F5F3F4F8617970718F490
:100D900089918823B9F720E030E02E153F0590F4C3
:100DA000888189010F5F1F4FE091AC01F091AD0187
:100DB000882311F0219601C080E2099598010E1553
:100DC0001F0570F3DF91CF911F910F91FF90EF906E
:100DD0000895CF93DF93EC01009779F0FC01219601
:100DE0008491882351F0E091AC01F091AD01099517
:100DF000FE01219684918823B1F7DF91CF91089568
:100E0000E091AC01F091AD018DE00995E091AC016C
:100E1000F091AD018AE009950895E82FFF27EF7062
:100E2000F070ED53FF4F8491E091AC01F091AD0172
:100E3000099508951F93182F82958F700E940D07B2
:100E4000812F0E940D071F9108950F931F938C010E
:100E5000812F99270E941A07802F0E941A071F913D
:100E60000F910895EF92FF920F931F937B018C01D6
:100E7000C801AA27BB270E942507C7010E94250792
:100E80001F910F91FF90EF9008952F923F924F92F4
:100E90005F926F927F928F929F92AF92BF92CF920A
:100EA000DF92EF92FF920F931F93CF93DF93CDB713
:100EB000DEB7A2970FB6F894DEBF0FBECDBF69A311
:100EC000C42E2AA327013801442351F017FF08C07C
:100ED000EE24FF248701E418F5080609170902C06B
:100EE0008301720199A1692F772767FD7095615081
:100EF0007040CC2011F061507040D62E18A22FE126
:100F0000222E312C2C0E3D1E882E992487FC909485
:100F1000A92CB92CC801B701A50194010E94AD0A02
:100F2000DC01CB01FC01ED53FF4F84918F8FC80191
:100F3000B701A50194010E94AD0A79018A01DA94F2
:100F4000AFEFDA1639F1DA94C1010197E114F10437
:100F500001051105C1F01C01C801B701A5019401EB
:100F60000E94AD0ADC01CB01FC01ED53FF4F8491DF
:100F7000F1018083C801B701A50194010E94AD0A67
:100F800079018A0104C01C01EAA1DC01EC93FFEFA6
:100F9000DF16C9F6CC20B9F077FE05C08DE2D1018D
:100FA0008E931D0110C0C10101971414150416047D
:100FB00017042CF41C018BE2F101808304C01C0196
:100FC00080E2D1018C93D9A0DA94BFEFDB1661F0F7
:100FD000E091AC01F091AD01D1018D911D01099518
:100FE000DA94BFEFDB16A1F7A2960FB6F894DEBF36
:100FF0000FBECDBFDF91CF911F910F91FF90EF906A
:10100000DF90CF90BF90AF909F908F907F906F9028
:101010005F904F903F902F9008957F928F929F9274
:10102000AF92BF92CF92DF92EF92FF920F931F93F6
:10103000CF93DF93CDB7DEB77888C988DA8863E1CC
:10104000A62EB12CAC0EBD1E08C0882309F481C0A9
:10105000E091AC01F091AD01099596012F5F3F4FF2
:10106000772021F0F6016901849103C0F6018081A7
:101070006901853251F72F5F3F4F772021F0F6014C
:101080006901849103C0F60180816901282F33270B
:1010900027FD30952436310591F02536310524F4AD
:1010A0002336310529F0D4CF2837310581F0D0CF50
:1010B000F50122E030E0A20EB31E8081C9CF5AE0D4
:1010C000852E912C40E1E42E47E2F42E04C030E15D
:1010D000E32EF12C4701F50122E030E0A20EB31E11
:1010E000008111818436D9F417FF09C0109501954C
:1010F0001F4FE091AC01F091AD018DE2099532E016
:10110000E316F10460F00E151F0548F4C7016AE00C
:1011100070E00E94990A7B0162307105A0F7C80156
:10112000B7010E94990AFB01ED53FF4F8491E091B2
:10113000AC01F091AD010995C801B7010E94990A6F
:101140008C01C701B4010E94990A7B01672B39F712
:1011500084CF80E090E0DF91CF911F910F91FF90BD
:10116000EF90DF90CF90BF90AF909F908F907F9047
:101170000895FC0160837183428353831682178232
:10118000148215820895CF93DF93EC01E0E02C8167
:101190003D8121153105B9F08E819F81E881F9816A
:1011A000E80FF91FE08101968E839F836A817B811E
:1011B0008617970720F00E94990A8E839F832150FB
:1011C00030402C833D838E2F9927DF91CF91089556
:1011D000CF93DF93FC01EB01248135816217730704
:1011E000A0F486819781860F971F868397836281FB
:1011F00073818617970720F00E94990A8683978348
:101200002C1B3D0B2483358302C014821582DF9191
:10121000CF910895FC018681978122813381860FC9
:10122000971FB9010E94990A0190F081E02DE80F03
:10123000F91F808199270895CF93DF93EC01462F02
:101240002C813D816A817B812617370798F48E8136
:101250009F81820F931F0E94990AE881F981E80F0C
:10126000F91F40838C819D8101968C839D838FEF34
:1012700090E002C080E090E0DF91CF910895FC0102
:1012800040E050E02481358182819381281739071D
:1012900010F441E050E0CA010895FC011482158267
:1012A0000895539854985098809169008260809373
:1012B0006900809169008E7F80936900E89AE998BF
:1012C000089599279F938F9384ED90E09F938F9338
:1012D00081E08F930E940D080F900F900F900F9058
:1012E0000F9008952A9A00C02A9808951F93CF93CB
:1012F000C82F662311F0449A01C04498459887B1DD
:101300008F6087B918B1107F8C2F82958F70812BD9
:1013100088B90E947209CF70C12BC8B90E947209A6
:101320001F6018B9CF911F910895882311F0449A36
:1013300001C04498459A87B1807F87B92A9A00C036
:1013400096B19295907F2A9800C02A9A00C086B1E3
:101350008F70982B2A98892F9927089580E00E94F2
:1013600095098823DCF38AE090E00197F1F780E0AB
:101370000E949509992708951F93182F0E94AE097E
:1013800060E0812F0E9476091F9108951F93182F06
:101390000E94AE0961E0812F0E9476091F91089595
:1013A000662311F4805803C0613021F480540E94F8
:1013B000BC090895623011F48C56F9CF8C52F7CFE6
:1013C0000E94AE099927089581E00E94BC09089502
:1013D00082E00E94BC090895CF93C82F0E94AE09F5
:1013E000982FCA3099F4843110F480E40BC08054F3
:1013F000843110F484E106C094519C3210F484E5E9
:1014000001C080E080580E94BC091BC0843119F4DF
:1014100060E080EC0EC0843519F460E084E909C016
:10142000883219F460E084ED04C0883621F460E06D
:1014300080E80E9476090E94AE0961E08C2F0E942C
:101440007609CF910895CF93DF93EC01899188239A
:1014500029F00E94EC0989918823D9F7DF91CF9177
:101460000895CF93DF93EC01FC01219684918823AA
:1014700039F00E94EC09FE01219684918823C9F776
:10148000DF91CF9108951F93182F87B18F6087B98F
:101490003C9A3D9A229A80E898E30197F1F7419AA5
:1014A000409A0E94720980E891E60197F1F70E9444
:1014B000720980E491E00197F1F70E94720980E4DB
:1014C00091E00197F1F740980E94720980E491E061
:1014D0000197F1F788E20E94BC0988E00E94BC09EC
:1014E0000E94E40986E00E94BC09812F0E94BC0989
:1014F0001F910895629FD001739FF001829FE00DBC
:10150000F11D649FE00DF11D929FF00D839FF00D82
:10151000749FF00D659FF00D9927729FB00DE11D2E
:10152000F91F639FB00DE11DF91FBD01CF0111240B
:101530000895AA1BBB1B51E107C0AA1FBB1FA6171A
:10154000B70710F0A61BB70B881F991F5A95A9F76C
:1015500080959095BC01CD010895A1E21A2EAA1B99
:10156000BB1BFD010DC0AA1FBB1FEE1FFF1FA21753
:10157000B307E407F50720F0A21BB30BE40BF50B50
:10158000661F771F881F991F1A9469F760957095D9
:10159000809590959B01AC01BD01CF01089597FB0B
:1015A000092E05260ED057FD04D0D7DF0AD0001C27
:1015B00038F450954095309521953F4F4F4F5F4FF0
:1015C0000895F6F790958095709561957F4F8F4FB0
:0415D0009F4F08958C
:0215D400010014
:00000001FF
