:100000000C94A2000C941E010C94BD000C94BD0035
:100010000C94BD000C94BD000C94BD000C9418070A
:100020000C9445070C9451060C94EB060C94910625
:100030000C94BE060C9424060C94BD000C94BD00D8
:100040000C94D1050C94BD000C9466080C94BD0072
:100050000C942E080C94BD000C94BD000C94BD00B3
:100060000C94BD000C94BD00302E205A65696C655F
:1000700000312E205A65696C6520256400322E20DF
:100080005A65696C6500332E205A65696C650030CD
:1000900031323334353637383941424344454600EE
:1000A0000000010008002000400080000001000462
:1000B000000001000800400000010004001F0000D3
:1000C00000001F00001F101010101F00001F181844
:1000D00018181F00001F1C1C1C1C1F00001F1E1EC8
:1000E0001E1E1F00001F1F1F1F1F1F0003070F1FC3
:1000F0000F070300001F1F1F1F1F1F001B1B1B1BC1
:100100001B1B1B00181C1E1F1E1C18000004040EC5
:100110000E1F1F00001F1F0E0E0404000000000031
:1001200000000000000E1915130E0000000E15153A
:10013000150E0000000E1315190E0000000E111F01
:10014000110E000011241FBECFEFD4E0DEBFCDBFE3
:1001500011E0A0E0B1E0E0ECF6E102C005900D9204
:10016000A030B107D9F711E0A0E0B1E001C01D92C5
:10017000A33BB107E1F70C94CA000C9400008091F6
:100180000001882329F40E941D0A8FEF809300014B
:1001900008950895CFEFD4E0DEBFCDBF0E94500494
:1001A00084E00E941F046FEB70E081E00E948704EE
:1001B000809100018823E1F30E946A0A60E0862FA3
:1001C0000E946E0A88E690E09F938F9311E01F9340
:1001D0000E943603612F812F0E946E0A0F900F90AC
:1001E0000F908CEF9FEF9F938F9381E790E09F9309
:1001F0008F931F930E94360362E0862F0E946E0A3F
:100200000F900F900F900F900F908DE790E09F93BD
:100210008F931F930E94360363E0862F0E946E0A1D
:100220000F900F900F9086E890E09F938F931F930D
:100230000E9436030F900F900F90BACF1F920F922B
:100240000FB60F9211240F900FBE0F901F901895AC
:10025000FC01608371834283538316821782148268
:1002600015820895CF93DF93EC01E0E02C813D816E
:1002700021153105B9F08E819F81E881F981E80F60
:10028000F91FE08101968E839F836A817B818617A7
:10029000970720F00E940F0B8E839F8321503040E0
:1002A0002C833D838E2F9927DF91CF910895CF9393
:1002B000DF93FC01EB012481358162177307A0F401
:1002C00086819781860F971F8683978362817381CA
:1002D0008617970720F00E940F0B868397832C1BAD
:1002E0003D0B2483358302C014821582DF91CF91A8
:1002F0000895FC018681978122813381860F971FA3
:10030000B9010E940F0B0190F081E02DE80FF91F59
:10031000808199270895CF93DF93EC01462F2C819C
:100320003D816A817B812617370798F48E819F81F2
:10033000820F931F0E940F0BE881F981E80FF91FCC
:1003400040838C819D8101968C839D838FEF90E00B
:1003500002C080E090E0DF91CF910895FC0140E081
:1003600050E024813581828193812817390710F468
:1003700041E050E0CA010895FC01148215820895FD
:1003800090930201809301010895E0910101F091A1
:10039000020109950895CF93DF93EC01892B61F059
:1003A0008881882349F0E0910101F091020189914F
:1003B000099588818823B9F7DF91CF910895EF924D
:1003C000FF920F931F93CF93DF93EC017A0120E00C
:1003D00030E0892B01F1C9012F5F3F4F8617970746
:1003E00018F489918823B9F720E030E02E153F05F5
:1003F00090F4888189010F5F1F4FE0910101F09116
:100400000201882311F0219601C080E2099598012C
:100410000E151F0570F3DF91CF911F910F91FF9083
:10042000EF900895CF93DF93EC01009779F0FC01F2
:1004300021968491882351F0E0910101F09102010D
:100440000995FE01219684918823B1F7DF91CF9120
:100450000895E0910101F09102018DE00995E0918C
:100460000101F09102018AE009950895E82FFF2724
:10047000EF70F070E157FF4F8491E0910101F0912E
:100480000201099508951F93182F82958F700E947D
:100490003602812F0E9436021F9108950F931F93F9
:1004A0008C01812F99270E944302802F0E944302D2
:1004B0001F910F910895EF92FF920F931F937B016D
:1004C0008C01C801AA27BB270E944E02C7010E94C7
:1004D0004E021F910F91FF90EF9008952F923F923F
:1004E0004F925F926F927F928F929F92AF92BF9244
:1004F000CF92DF92EF92FF920F931F93CF93DF93F0
:10050000CDB7DEB7A2970FB6F894DEBF0FBECDBF52
:1005100069A3C42E2AA327013801442351F017FFF1
:1005200008C0EE24FF248701E418F508060917091E
:1005300002C08301720199A1692F772767FD709529
:1005400061507040CC2011F061507040D62E18A23E
:100550002FE1222E312C2C0E3D1E882E992487FC53
:100560009094A92CB92CC801B701A50194010E944F
:10057000230BDC01CB01FC01E157FF4F84918F8FEE
:10058000C801B701A50194010E94230B79018A01DA
:10059000DA94AFEFDA1639F1DA94C1010197E11478
:1005A000F10401051105C1F01C01C801B701A50145
:1005B00094010E94230BDC01CB01FC01E157FF4FAA
:1005C0008491F1018083C801B701A50194010E94C3
:1005D000230B79018A0104C01C01EAA1DC01EC9320
:1005E000FFEFDF16C9F6CC20B9F077FE05C08DE22B
:1005F000D1018E931D0110C0C1010197141415047F
:10060000160417042CF41C018BE2F101808304C052
:100610001C0180E2D1018C93D9A0DA94BFEFDB16E4
:1006200061F0E0910101F0910201D1018D911D0174
:100630000995DA94BFEFDB16A1F7A2960FB6F894EE
:10064000DEBF0FBECDBFDF91CF911F910F91FF9005
:10065000EF90DF90CF90BF90AF909F908F907F9062
:100660006F905F904F903F902F9008957F928F9260
:100670009F92AF92BF92CF92DF92EF92FF920F9331
:100680001F93CF93DF93CDB7DEB77888C988DA8818
:1006900063E1A62EB12CAC0EBD1E08C0882309F460
:1006A00081C0E0910101F0910201099596012F5F4F
:1006B0003F4F772021F0F6016901849103C0F601D4
:1006C00080816901853251F72F5F3F4F772021F0FC
:1006D000F6016901849103C0F60180816901282F28
:1006E000332727FD30952436310591F02536310525
:1006F00024F42336310529F0D4CF2837310581F091
:10070000D0CFF50122E030E0A20EB31E8081C9CF28
:100710005AE0852E912C40E1E42E47E2F42E04C0ED
:1007200030E1E32EF12C4701F50122E030E0A20E8A
:10073000B31E008111818436D9F417FF09C01095CA
:1007400001951F4FE0910101F09102018DE20995A1
:1007500032E0E316F10460F00E151F0548F4C701FE
:100760006AE070E00E940F0B7B0162307105A0F718
:10077000C801B7010E940F0BFB01E157FF4F8491A5
:10078000E0910101F09102010995C801B7010E94B1
:100790000F0B8C01C701B4010E940F0B7B01672B6B
:1007A00039F784CF80E090E0DF91CF911F910F91D6
:1007B000FF90EF90DF90CF90BF90AF909F908F9081
:1007C0007F900895039665E070E00E940F0BCB01C7
:1007D000AA27BB27BC01CD0124E130E040E050E076
:1007E0000E94F00ADC01CB01009711F00197FCCFC9
:1007F0000895873040F4E82FFF27EE0FFF1FED5FCD
:10080000FE4F108211820895089595B5987F982B18
:1008100095BD089510929301109294011092950144
:1008200010929601089582E00E94050416BC809102
:100830006E00816080936E000E940A04089590917A
:100840008100987F982B90938100089583E00E9407
:100850001F04109285001092840080916F008160C7
:1008600080936F0008959091B100987F982B90939A
:10087000B100089510929B0110929C0110929D016D
:1008800010929E01089584E00E9433041092B200F9
:10089000809170008160809370000E943A040895F6
:1008A000CF93C0E08C2F0E94F903CF5FC730D0F305
:1008B0000E9413040E9426040E9443047894CF915E
:1008C000089585B5E82FFF27E770F070EE0FFF1F42
:1008D000E055FF4F85919491089580918100E82F14
:1008E000FF27E770F070EE0FFF1FE055FF4F859177
:1008F000949108958091B100E82FFF27E770F07080
:10090000EE0FFF1FE056FF4F8591949108958730B9
:1009100040F4E82FFF27EE0FFF1FED5FFE4F6083CF
:10092000718308950895DF92EF92FF920F931F93C2
:10093000CF93DF93EC01D6B41092970110929801F7
:100940001092990110929A010E9461049C0144271F
:10095000552760E07DE281E391E00E94450B293B51
:100960008DE8380786E0480780E05807C0F487E242
:10097000C131D807A0F4CE01AA27BB27BC01CD0105
:100980000E94F00ADC01CB01BC01CD0128EE33E06E
:1009900040E050E00E94230BFA01E90111C07E0102
:1009A00000271127CA01B90128EE33E040E050E0EA
:1009B0000E94230BC801B7010E94F00AFC01EB0161
:1009C0008091970190919801A0919901B0919A011D
:1009D0002227382F492F5A2F86B59927AA27BB27B8
:1009E000282B392B4A2B5B2BCD0DD11DE11DF11D81
:1009F0002C173D074E075F0758F58091970190919E
:100A00009801A0919901B0919A0183B7817F83BF2A
:100A100083B7816083BF889583B78E7F83BF8091C2
:100A2000970190919801A0919901B0919A01BA2FE4
:100A3000A92F982F882726B5332744275527822B9F
:100A4000932BA42BB52B8C179D07AE07BF07A8F2DD
:100A5000DF91CF911F910F91FF90EF90DF9008955C
:100A60008091930190919401A0919501B09196018C
:100A7000BC01CD01089580919B0190919C01A091B2
:100A80009D01B0919E01BC01CD010895893049F4CA
:100A900080918000826080938000809180008E7FB2
:100AA0000EC08A3021F480918000826003C0809162
:100AB00080008D7F80938000809180008160809392
:100AC0008000109289001092880010928B00109282
:100AD0008A0008959C01809180008E7F8093800021
:100AE0008091800082608093800080918100886086
:100AF0008093810080918100806180938100309398
:100B0000870020938600109289001092880010922E
:100B10008B0010928A000895809180008F778093D7
:100B20008000809180008F7B809380000895809169
:100B300080008F7D80938000809180008F7E8093E5
:100B400080000895809180008D7F80938000809147
:100B500080008E7F809380000E948C050E94970504
:100B6000089580918000806880938000809180004B
:100B70008F7B8093800008958091800080628093B5
:100B80008000809180008F7E8093800008959093F4
:100B9000890080938800089590938B0080938A0049
:100BA00008951F920F920FB60F9211242F933F9327
:100BB0004F935F936F937F938F939F93AF93BF9365
:100BC000EF93FF938091930190919401A0919501EF
:100BD000B09196010196A11DB11D80939301909350
:100BE0009401A0939501B093960180919701909103
:100BF0009801A0919901B0919A010196A11DB11D92
:100C00008093970190939801A0939901B0939A01D2
:100C10008091030190910401892B29F0E091030157
:100C2000F09104010995FF91EF91BF91AF919F91D0
:100C30008F917F916F915F914F913F912F910F9085
:100C40000FBE0F901F9018951F920F920FB60F9224
:100C500011242F933F934F935F936F937F938F93C1
:100C60009F93AF93BF93EF93FF9380910501909172
:100C70000601892B29F0E0910501F0910601099503
:100C8000FF91EF91BF91AF919F918F917F916F9164
:100C90005F914F913F912F910F900FBE0F901F903A
:100CA00018951F920F920FB60F9211242F933F9316
:100CB0004F935F936F937F938F939F93AF93BF9364
:100CC000EF93FF9380919B0190919C01A0919D01D6
:100CD000B0919E010196A11DB11D80939B0190933F
:100CE0009C01A0939D01B0939E0180910D01909174
:100CF0000E01892B29F0E0910D01F0910E0109956B
:100D0000FF91EF91BF91AF919F918F917F916F91E3
:100D10005F914F913F912F910F900FBE0F901F90B9
:100D200018951F920F920FB60F9211242F933F9395
:100D30004F935F936F937F938F939F93AF93BF93E3
:100D4000EF93FF938091070190910801892B29F07F
:100D5000E0910701F09108010995FF91EF91BF9192
:100D6000AF919F918F917F916F915F914F913F9143
:100D70002F910F900FBE0F901F9018951F920F92FA
:100D80000FB60F9211242F933F934F935F936F935E
:100D90007F938F939F93AF93BF93EF93FF93809134
:100DA000090190910A01892B29F0E0910901F09144
:100DB0000A010995FF91EF91BF91AF919F918F919A
:100DC0007F916F915F914F913F912F910F900FBE47
:100DD0000F901F9018951F920F920FB60F9211242B
:100DE0002F933F934F935F936F937F938F939F9333
:100DF000AF93BF93EF93FF9380910B0190910C0100
:100E0000892B29F0E0910B01F0910C010995FF91DC
:100E1000EF91BF91AF919F918F917F916F915F9172
:100E20004F913F912F910F900FBE0F901F901895EB
:100E30001F920F920FB60F9211242F933F934F934F
:100E40005F936F937F938F939F93AF93BF93EF9332
:100E5000FF9380910F0190911001892B29F0E0916F
:100E60000F01F09110010995FF91EF91BF91AF91A2
:100E70009F918F917F916F915F914F913F912F91B2
:100E80000F900FBE0F901F9018951F920F920FB6E4
:100E90000F9211242F933F934F935F936F937F9300
:100EA0008F939F93AF93BF93EF93FF9380910F0125
:100EB00090911001892B29F0E0910F01F091100120
:100EC0000995FF91EF91BF91AF919F918F917F9184
:100ED0006F915F914F913F912F910F900FBE0F90A7
:100EE0001F901895DC01CB0173E0880F991FAA1F92
:100EF000BB1F7A95D1F79C01AD01220F331F441F10
:100F0000551F8050934DAE4CBE4FBC01CD010E9489
:100F1000230BDA01C90101978093C400892F992717
:100F20008093C500089540E450E061E171E080EAFB
:100F300091E00E94280140E450E061E571E089EA17
:100F400091E00E9428010895F8940E94930710925E
:100F500092011092910188ED8093C10060E875E2E2
:100F600080E090E00E9472078FEF80939F011092C3
:100F7000A8011092B2011092B10178940895909353
:100F8000920180939101089580EA91E0089589EAA1
:100F900091E00895982F80919F018823E1F3909329
:100FA000C60010929F010895CF93DF93EC018091CA
:100FB000A2019091A301009769F08091A401909102
:100FC000A501009739F080EA91E00E943201888300
:100FD0008FEF90E0DF91CF910895CF93DF93CDB75E
:100FE000DEB721970FB6F894DEBF0FBECDBFCE019E
:100FF00001960E94D407882319F08981992702C09D
:101000008FEF9FEF21960FB6F894DEBF0FBECDBFD6
:10101000DF91CF9108951092A5011092A401089537
:101020008091A4019091A501892B19F48FEF90E094
:10103000089580E090E008950895682F89EA91E08E
:101040000E948B01992708958FEF8093A80189EA68
:1010500091E00E9432010E94CA0708951F920F92E8
:101060000FB60F9211242F933F934F935F936F937B
:101070007F938F939F93AF93BF93EF93FF93809151
:10108000A801882379F08091AD019091AE01892B60
:1010900039F089EA91E00E9432018093C60005C0D0
:1010A0001092A8018FEF80939F01FF91EF91BF9164
:1010B000AF919F918F917F916F915F914F913F91F0
:1010C0002F910F900FBE0F901F9018951F920F92A7
:1010D0000FB60F9211242F933F934F935F936F930B
:1010E0007F938F939F93AF93BF93EF93FF93609101
:1010F000C6008091910190919201892B39F0E09185
:101100009101F0919201862F09950FC080EA91E03C
:101110000E948B01882349F48091B1019091B20122
:1011200001969093B2018093B101FF91EF91BF912D
:10113000AF919F918F917F916F915F914F913F916F
:101140002F910F900FBE0F901F90189544984598BF
:101150002A983C9A3D9A229A87B1807F87B988B1B4
:101160008F6088B90895449887B1807F87B988B126
:101170008F6088B9459A2A9A85E090E00E94E20340
:10118000339B26C02A9885E090E00E94E20385E028
:1011900090E00E94E2032A9A85E090E00E94E20338
:1011A00085E090E00E94E2032A9885E090E00E94AA
:1011B000E20385E090E00E94E2032A9A85E090E055
:1011C0000E94E20385E090E00E94E2033399DACFC7
:1011D0002A9808950F931F93182F0E94B3084498DC
:1011E00045982A9A87B18F6087B900EF28B12023EC
:1011F000812F992734E0969587953A95E1F7282B2A
:1012000028B985E090E00E94E20385E090E00E942A
:10121000E2032A9885E090E00E94E20385E090E0F6
:101220000E94E2032A9A88B180231F70812B88B91B
:1012300085E090E00E94E20385E090E00E94E203F6
:101240002A9887B1802387B988B18F6088B916B88A
:101250001F910F9108950F931F930E94B30800EF01
:1012600087B1802387B988B18F6088B94498459A3F
:101270002A9A85E090E00E94E20385E090E00E94D7
:10128000E20316B110232A9885E090E00E94E20361
:1012900085E090E00E94E2032A9A85E090E00E94B7
:1012A000E20385E090E00E94E20386B182958F70B0
:1012B000182B2A98812F99271F910F9108950F932A
:1012C0001F93182F0E94B308449A45982A9A87B111
:1012D0008F6087B900EF28B12023812F992744E040
:1012E000969587954A95E1F7282B28B985E090E0F7
:1012F0000E94E20385E090E00E94E2032A9885E0E4
:1013000090E00E94E20385E090E00E94E2032A9AC6
:1013100088B180231F70812B88B985E090E00E94FE
:10132000E20385E090E00E94E2032A9887B18023DF
:1013300087B988B18F6088B916B81F910F91089549
:101340000F931F930E94B30800EF87B1802387B9E2
:1013500088B18F6088B9449A459A2A9A85E090E0CE
:101360000E94E20385E090E00E94E20316B11023A0
:101370002A9885E090E00E94E20385E090E00E94D8
:10138000E2032A9A85E090E00E94E20385E090E083
:101390000E94E20386B182958F70182B2A98812FC4
:1013A00099271F910F910895AF92BF92CF92DF922C
:1013B000FF920F931F93CF93DF93CDB7DEB72197A3
:1013C0000FB6F894DEBF0FBECDBF6C01062F142FF1
:1013D0000E942B098F778983110F110F110F000FB6
:1013E000000F000FFF24AA24BB24812F8F0D8064DF
:1013F0000E94EA08F601E00FF11DEA0DFB1D849141
:101400000E945F09F3940894A11CB11C87E08F151A
:1014100060F7898180680E94EA0821960FB6F894E7
:10142000DEBF0FBECDBFDF91CF911F910F91FF9017
:10143000DF90CF90BF90AF9008950E94A60888E2F9
:101440000E94EA0881E00E94EA0880E69AEE0E9483
:10145000E20386E00E94EA088CE00E94EA0882E04B
:101460000E94EA0880E80E94EA0840E0642F8CEBC2
:1014700090E00E94D40941E0642F8CEB90E00E9440
:10148000D40942E0642F8CEB90E00E94D40943E041
:10149000642F8CEB90E00E94D40944E0642F8CEB25
:1014A00090E00E94D40945E0642F8CEB90E00E940C
:1014B000D40946E0642F8CEB90E00E94D40947E009
:1014C000642F8CEB90E00E94D409089582E00E9482
:1014D000EA08089581E00E94EA080895282F862FDF
:1014E00099278130910549F0823091057CF0823056
:1014F000910531F0039739F009C0822F805C07C055
:10150000822F8C5E04C0822F8C5A01C0822F80688B
:101510000E94EA0808950F931F93CF93009759F004
:10152000662349F08C01C62FF80181918F010E943A
:101530005F09C150C9F7CF911F910F910895DF92B4
:10154000EF92FF920F931F93CF93DF93242F3327B4
:10155000829FF001839FF00D929FF00D1124CF0127
:10156000880F991F880F991F8E0F9F1F8E0F9F1F27
:101570000E940F0B7B0100271127442349F1C0E093
:10158000D0E0D42E2596CE01AA27BB272597E816B2
:10159000F9060A071B07A8F4CE01AA27BB27E816FD
:1015A000F9060A071B0710F480E00CC0C801B70158
:1015B00026E030E040E050E00E94230BDC01CB014C
:1015C00001C085E00E945F09DA942696DD20D1F6FD
:1015D000DF91CF911F910F91FF90EF90DF900895D1
:1015E000629FD001739FF001829FE00DF11D649F07
:1015F000E00DF11D929FF00D839FF00D749FF00D93
:10160000659FF00D9927729FB00DE11DF91F639F33
:10161000B00DE11DF91FBD01CF0111240895AA1BD2
:10162000BB1B51E107C0AA1FBB1FA617B70710F0CD
:10163000A61BB70B881F991F5A95A9F780959095FF
:10164000BC01CD010895A1E21A2EAA1BBB1BFD010E
:101650000DC0AA1FBB1FEE1FFF1FA217B307E40791
:10166000F50720F0A21BB30BE40BF50B661F771FE9
:10167000881F991F1A9469F76095709580959095C9
:101680009B01AC01BD01CF01089597FB092E0526F2
:101690000ED057FD04D0D7DF0AD0001C38F4509587
:1016A0004095309521953F4F4F4F5F4F0895F6F786
:1016B00090958095709561957F4F8F4F9F4F0895BE
:00000001FF
